{
  "_format": "hh3-artifact-1",
  "contractName": "DocumentRegistry",
  "sourceName": "contracts/DocumentRegistry.sol",
  "abi": [
    {
      "anonymous": false,
      "inputs": [
        {
          "indexed": true,
          "internalType": "bytes32",
          "name": "docHash",
          "type": "bytes32"
        },
        {
          "indexed": true,
          "internalType": "address",
          "name": "author",
          "type": "address"
        },
        {
          "indexed": false,
          "internalType": "uint256",
          "name": "timestamp",
          "type": "uint256"
        }
      ],
      "name": "DocumentAnchored",
      "type": "event"
    },
    {
      "inputs": [
        {
          "internalType": "bytes32",
          "name": "docHash",
          "type": "bytes32"
        }
      ],
      "name": "anchor",
      "outputs": [],
      "stateMutability": "nonpayable",
      "type": "function"
    },
    {
      "inputs": [
        {
          "internalType": "bytes32",
          "name": "",
          "type": "bytes32"
        }
      ],
      "name": "proofs",
      "outputs": [
        {
          "internalType": "address",
          "name": "author",
          "type": "address"
        },
        {
          "internalType": "uint256",
          "name": "timestamp",
          "type": "uint256"
        }
      ],
      "stateMutability": "view",
      "type": "function"
    },
    {
      "inputs": [
        {
          "internalType": "bytes32",
          "name": "docHash",
          "type": "bytes32"
        }
      ],
      "name": "verify",
      "outputs": [
        {
          "internalType": "address",
          "name": "author",
          "type": "address"
        },
        {
          "internalType": "uint256",
          "name": "timestamp",
          "type": "uint256"
        }
      ],
      "stateMutability": "view",
      "type": "function"
    }
  ],
  "bytecode": "0x6080604052348015600e575f5ffd5b506102498061001c5f395ff3fe608060405234801561000f575f5ffd5b506004361061003f575f3560e01c8063444d95b01461004357806375e3661614610098578063eecdf927146100db575b5f5ffd5b6100756100513660046101fc565b5f60208190529081526040902080546001909101546001600160a01b039091169082565b604080516001600160a01b03909316835260208301919091520160405180910390f35b6100756100a63660046101fc565b5f9081526020818152604091829020825180840190935280546001600160a01b03168084526001909101549290910182905291565b6100ee6100e93660046101fc565b6100f0565b005b8061012f5760405162461bcd60e51b815260206004820152600a60248201526908adae0e8f240d0c2e6d60b31b60448201526064015b60405180910390fd5b5f81815260208190526040902060010154156101805760405162461bcd60e51b815260206004820152601060248201526f105b1c9958591e48185b98da1bdc995960821b6044820152606401610126565b604080518082018252338082524260208084018281525f878152808352869020945185546001600160a01b0319166001600160a01b039091161785555160019094019390935592519283529183917f30fcec615a5b34f4b3bb2d830687f8e4f4d3ec06a748a5c3baea47d524cb7f83910160405180910390a350565b5f6020828403121561020c575f5ffd5b503591905056fea26469706673582212209984c4ea0b078a9487c892c7a556d1a085c3d89eade6622ae60c0979a19cc96a64736f6c634300081c0033",
  "linkReferences": {},
  "deployedLinkReferences": {},
  "immutableReferences": {},
  "inputSourceName": "project/contracts/DocumentRegistry.sol",
  "buildInfoId": "solc-0_8_28-933c8f16cd6cbe4f876e08391339e7bb60dcf1d2"
}